:1000000045C0000053C0000051C000004FC00000B8
:100010004DC000004BC0000049C0000047C00000B8
:1000200045C0000043C0000041C000003FC00000C8
:100030003DC000003BC0000039C0000037C00000D8
:1000400035C0000033C0000031C0000039C00000DE
:100050005FC000002BC0000086C0000027C0000069
:1000600025C0000023C0000021C000001FC0000008
:100070001DC000001BC0000019C0000017C0000018
:1000800015C0000013C0000011C0000011241FBEE5
:10009000CFEFD0E4DEBFCDBF21E0A0E0B1E001C0F2
:1000A0001D92A438B207E1F768D076C0A9CF80E4EA
:1000B00084B982E08AB908951DBC83EE8CBD089591
:1000C0001F920F920FB60F9211248F938EB58093CB
:1000D000000181508EBD8F910F900FBE0F901F9029
:1000E00018951092C50087E08093C40088ED809336
:1000F000C10086E08093C2000895E0ECF0E09081BA
:1001000095FFFDCF8093C6008EBD809300010895BA
:100110001F920F920FB60F9211240BB60F922F93CE
:100120003F934F935F936F937F938F939F93AF937F
:10013000BF93EF93FF938091C60080938301DDDF2F
:10014000FF91EF91BF91AF919F918F917F916F91AF
:100150005F914F913F912F910F900BBE0F900FBE6B
:100160000F901F9018951F920F920FB60F921124A7
:100170000F900FBE0F901F90189581E08093810122
:100180001092000183B7816083BF91DF80E185B960
:0C01900093DFA7DF7894FFCFF894FFCF37
:00000001FF
