S0170000537479726D6F64756C5F7641302E312E7372656395
S113000045C0000060C000005EC000005CC000008D
S11300105AC0000058C0000056C0000054C0000080
S113002052C0000050C000004EC000004CC0000090
S11300304AC0000048C0000046C0000044C00000A0
S113004042C0000040C000003EC000005AC0000092
S11300503AC0000038C0000036C0000034C00000C0
S113006032C0000030C000002EC000002CC00000D0
S11300702AC0000028C0000026C0000024C00000E0
S113008022C0000020C000001EC0000011241FBEBA
S1130090CFEFD0E4DEBFCDBF11E0A0E0B1E0E8E5F2
S11300A0F3E000E00BBF02C007900D92A032B1074D
S11300B0D9F721E0A0E2B1E001C01D92A232B2075B
S11300C0E1F7EED047C19CCF8FEF81B99FEB94B994
S11300D091E097B98AB908951DBC83E78CBD089552
S11300E06B3611F42C9807C0633711F42B9803C0B6
S11300F0673609F440988EBD0DB407FEFDCF8EB56A
S113010008951F920F920FB60F9211248F9385B109
S1130110896185B98F910F900FBE0F901F9018952C
S113012081EF8093B0008BE08093B1001092B30014
S11301301092B400089511B8299A28982A9A00C0F8
S113014080B12A9829989FEF91B9881F8827881F22
S113015090E00895CF93C82F06C089EF90E00197EF
S1130160F1F700C00000E7DF892BB9F72898C2B97E
S11301702A9AC150C23038F486E791E00197F1F72A
S113018000C0000004C090E19A95F1F700C02A98DD
S1130190CF910895CF93DF93EC0106C089EF90E0EF
S11301A00197F1F700C00000C6DF892BB9F7289842
S11301B02998C130D10519F480E8CCDF04C0229716
S11301C011F480ECC7DFDF91CF910895CF93C82F4E
S11301D020912001309121012F5F3F4F3093210165
S11301E0209320012031310521F482E090E0D2DF18
S11301F011C02032310571F41092210110922001B6
S113020081E090E0C7DF06C089EF90E00197F1F745
S113021000C0000090DF892BB9F7289A2998C2B949
S11302202A9A90E19A95F1F700C02A98CF910895FF
S1130230CF93DF93EC018881882329F02196C6DFD0
S113024089918111FCCFDF91CF91089580E091E0F5
S1130250EFDF82E090E09EDF80E191E0E9CF089556
S113026010922101109220018BE49DE10197F1F796
S113027000C0000088E36EDF9DE09A95F1F788E006
S113028069DF8DE08A95F1F781E064DF8EE791E024
S11302900197F1F7000086E05DDF8EE05BCF089503
S11302A0789483B7816083BF0FDF89E185B914DF58
S11302B0D7DF36DFCBDF81E090E06CDF87E386DFDA
S11302C06BE681E00DDF82DF6BE682E009DF7EDF33
S11302D06BE680E005DF7ADF2FEB86EC9DE22150B0
S11302E080409040E1F700C000006BE680E0F8DE5B
S11302F06DDF2FEB86EC9DE2215080409040E1F7CA
S113030000C000006BE683E0EBDE60DF2FEB86ECE1
S11303109DE2215080409040E1F700C000006BE670
S113032084E0DEDE53DF2FEB86EC9DE2215080403B
S11303309040E1F700C000006BE685E0D1DE46DFC7
S11303402FEB86EC9DE2215080409040E1F700C005
S10B03500000BECFF894FFCFBA
S113035820202020526573512E506C206865680057
S113036820204D61737465722052616365202000FA
S9030000FC
