:1000000045C0000058C0000056C0000054C00000A9
:1000100052C0000050C000004EC000004CC00000A4
:100020004AC0000048C0000046C0000044C00000B4
:1000300042C0000040C000003EC000003CC00000C4
:100040003AC0000038C0000036C000004FC00000B9
:1000500032C0000030C000002EC000002CC00000E4
:100060002AC0000028C0000026C0000024C00000F4
:1000700022C0000020C000001EC000001CC0000004
:100080001AC0000018C0000016C0000011241FBED6
:10009000CFEFD0E4DEBFCDBF11E0A0E0B1E0E2E5FC
:1000A000F3E000E00BBF02C007900D92A032B10751
:1000B000D9F7DED04CC1A4CF8FE481B98FEB84B9DE
:1000C00081E087B98FEF8AB908951DBC83E78CBDA5
:1000D00008956B3611F415B803C0633709F415B8E9
:1000E0008EBD0DB407FEFDCF8EB508951F920F9201
:1000F0000FB60F9211248F9385B1806385B98F91CC
:100100000F900FBE0F901F9018951AB8299A289833
:100110002A9A00C089B12A9829989FEF9AB9881F16
:100120008827881F90E00895CF93C82F06C089EFD5
:1001300090E00197F1F700C00000E7DF892BB9F7E5
:100140002898CBB92A9AC150C23038F486E791E09A
:100150000197F1F700C0000004C090E19A95F1F713
:1001600000C02A98CF910895CF93DF93EC0106C089
:1001700089EF90E00197F1F700C00000C6DF892BFE
:10018000B9F728982998C130D10519F480E8CCDF57
:1001900004C0229711F480ECC7DFDF91CF9108955E
:1001A000CF93C82F06C089EF90E00197F1F700C008
:1001B0000000ABDF892BB9F728982998C03120F4CB
:1001C00080E88C0FB1DF08C0C03220F480EB8C0FC8
:1001D000ABDF02C080E8A8DFCF910895CF93C82F8E
:1001E00006C089EF90E00197F1F700C000008DDFB5
:1001F000892BB9F7289ACBB92A9A90E19A95F1F709
:1002000000C02A98CF910895CF93DF93EC018881A5
:10021000882329F02196E2DF89918111FCCFDF91BB
:10022000CF91089580E091E0EFDF82E090E09CDFE5
:1002300080E191E0E9CF08958BE49DE10197F1F72A
:1002400000C0000088E370DF9DE09A95F1F788E038
:100250006BDF8DE08A95F1F781E066DF8EE791E054
:100260000197F1F7000086E05FDF8EE05DCF089533
:10027000789483B7816083BF1FDF88E185B925DF6C
:10028000DBDFD0DF81E090E06FDF87E3A7DF6BE6A5
:1002900081E01FDFA3DF6BE682E01BDF9FDF8FE1E2
:1002A0007FDF2FEB86EC9DE2215080409040E1F70C
:1002B00000C0000084E592DF2FEB86EC9DE2215028
:1002C00080409040E1F700C000006BE680E001DF75
:1002D00085DF2FEB86EC9DE2215080409040E1F7D6
:1002E00000C000006BE680E0F4DE78DF2FEB86ECE8
:1002F0009DE2215080409040E1F700C000006BE695
:1003000083E0E7DE6BDF2FEB86EC9DE2215080403F
:100310009040E1F700C000006BE684E0DADE5EDFCB
:100320002FEB86EC9DE2215080409040E1F700C029
:1003300000006BE685E0CDDE51DF2FEB86EC9DE221
:10034000215080409040E1F700C00000BECFF894FB
:02035000FFCFDD
:1003520020202020526573512E506C206865680061
:1003620020204D6173746572205261636520200004
:00000001FF
