:1000000045C0000060C000005EC000005CC0000091
:100010005AC0000058C0000056C0000054C0000084
:1000200052C0000050C000004EC000004CC0000094
:100030004AC0000048C0000046C0000044C00000A4
:1000400042C0000040C000003EC00000BAC1000035
:10005000EAC0000049C1000036C0000034C0000002
:1000600032C0000030C000002EC000002CC00000D4
:100070002AC0000028C0000026C0000024C00000E4
:1000800022C0000020C000001EC0000011241FBEBE
:10009000CFEFD0E4DEBFCDBF11E0A0E0B1E0E2EFF2
:1000A000F6E000E00BBF02C007900D92A231B1074D
:1000B000D9F721E0A2E1B1E001C01D92A232B2075E
:1000C000E1F7E2D114C39CCF80E484B982E08AB91D
:1000D00008951DBC83EE8CBD08951092C50087E085
:1000E0008093C40088E98093C10086E08093C200B9
:1000F00008951F93CF93DF93EC01162F8881998188
:10010000892B49F483E090E0CBD199838883FC016B
:100110001282118210830990D881C02D89819A8121
:10012000009711F0EC01FACF83E090E0B9D19A8307
:1001300089831883FC0112821182DF91CF911F9174
:100140000895FF920F931F93CF93DF93EC01E88103
:10015000F981309749F001811281F080CF0138D2C6
:10016000198308838F2D01C083E0DF91CF911F9108
:100170000F91FF900895CF93DF93FC01C081D1814F
:10018000209759F01182108289819A81892B19F068
:10019000CE010196F0DFCE011BD2DF91CF91089501
:1001A000EF92FF920F931F93CF93DF937C018B010C
:1001B00082E191E0E0DF1016110654F4E7010E0D24
:1001C0001F1D699182E191E094DFC017D107C9F743
:1001D000E1ECF0E0808180628083DF91CF911F911C
:1001E0000F91FF90EF900895873569F0893599F068
:1001F0008130C1F4809318011092190110921701F7
:100200001092160108951092170181E08093190150
:1002100010921801089581E080931701109219013E
:100220001092180108951F920F920FB60F92112489
:100230000BB60F922F933F934F935F936F937F93E0
:100240008F939F93AF93BF93EF93FF938091C600DB
:100250009091180191110AC09091190191111BC040
:1002600090911701911122C0BFDF15C0913099F410
:10027000873589F090911601E92FF0E0E35FFE4F9A
:10028000808381E0890F80931601853021F41092DC
:1002900018011092160180911901813039F464E03F
:1002A00070E086E091E07CDF1092190180911701E7
:1002B000813039F463E070E08AE091E071DF109200
:1002C0001701FF91EF91BF91AF919F918F917F9116
:1002D0006F915F914F913F912F910F900BBE0F90B7
:1002E0000FBE0F901F9018951F920F920FB60F928E
:1002F00011240BB60F922F933F934F935F936F93FD
:100300007F938F939F93AF93BF93EF93FF938091CE
:10031000120190911301892B31F4E1ECF0E080811E
:100320008F7D808305C082E191E00BDF8093C60062
:10033000FF91EF91BF91AF919F918F917F916F91BD
:100340005F914F913F912F910F900BBE0F900FBE79
:100350000F901F901895682F84E191E0CACE089500
:100360000F931F93CF93DF93161617064CF4EC01EF
:100370008C01060F171F8991EEDFC017D107D9F73F
:10038000DF91CF911F910F910895813019F08F3F28
:1003900049F010C081E080931B0110921C01109263
:1003A0001A01089581E080931C0110921B011092A4
:1003B0001A01089510921C0110921B0110921A014B
:1003C00008951F920F920FB60F9211240BB60F9241
:1003D0002F933F934F935F936F937F938F939F934D
:1003E000AF93BF93EF93FF938EB590911B01911143
:1003F00006C090911C01911102C0C7DF15C09091F9
:100400001C01913089F490911A01E92FF0E0EA5F24
:10041000FE4F80839F5F943019F090931A0104C0BF
:1004200010921A0110921C0180911B01813061F41D
:1004300065E070E08DE091E093DF84E191E081DEA2
:100440008EBD10921B010DC0809114019091150179
:10045000892B19F48FEF8EBD04C084E191E071DE29
:100460008EBDFF91EF91BF91AF919F918F917F9141
:100470006F915F914F913F912F910F900BBE0F9015
:100480000FBE0F901F90189510921D0183B78160C9
:1004900083BF1ADE80E185B91CDE1FDE7894FFCFB2
:1004A000CF93DF938230910510F482E090E0E091E9
:1004B0002001F091210120E030E0A0E0B0E0309791
:1004C00039F14081518148175907B8F04817590749
:1004D00071F482819381109729F013969C938E93E7
:1004E00012972CC0909321018093200127C02115E1
:1004F000310531F04217530718F0A901DB0101C0A3
:10050000EF019A01BD01DF010280F381E02DD7CF19
:1005100021153105F9F0281B390B2430310580F401
:100520008A819B816115710521F0FB019383828390
:1005300004C09093210180932001FE01329644C0B3
:10054000FE01E20FF31F8193919322503109398309
:1005500028833AC020911E0130911F01232B41F4C2
:10056000209102013091030130931F0120931E015D
:1005700020910001309101012115310541F42DB781
:100580003EB74091040150910501241B350BE091C9
:100590001E01F0911F01E217F307A0F42E1B3F0B81
:1005A0002817390778F0AC014E5F5F4F24173507E5
:1005B00048F04E0F5F1F50931F0140931E0181931F
:1005C000919302C0E0E0F0E0CF01DF91CF91089578
:1005D000CF93DF93009709F487C0FC013297138211
:1005E0001282C0912001D0912101209781F42081B5
:1005F0003181280F391F80911E0190911F018217B0
:10060000930779F5F0931F01E0931E016DC0DE01A1
:1006100020E030E0AE17BF0750F412964D915C9188
:1006200013979D014115510509F1DA01F3CFB38309
:10063000A28340815181840F951F8A179B0771F413
:100640008D919C911197840F951F029691838083C1
:1006500012968D919C911397938382832115310576
:1006600029F4F0932101E09320013EC0D9011396B3
:10067000FC93EE9312974D915D91A40FB51FEA176D
:10068000FB0779F480819181840F951F0296D9012F
:1006900011969C938E938281938113969C938E9353
:1006A0001297E0E0F0E08A819B81009719F0FE014B
:1006B000EC01F9CFCE01029628813981820F931F78
:1006C00020911E0130911F012817390769F43097D6
:1006D00029F4109221011092200102C0138212828B
:1006E000D0931F01C0931E01DF91CF910895F8941C
:0206F000FFCF3A
:1006F200000022012000090807060A0A0100000181
:020702000100F4
:00000001FF
