S01600004B6F6D6D6F64756C5F7641302E312E7372656321
S113000045C0000060C000005EC000005CC000008D
S11300105AC0000058C0000056C0000054C0000080
S113002052C0000050C000004EC000004CC0000090
S11300304AC0000048C0000046C0000044C00000A0
S113004042C0000040C000003EC0000046C00000A6
S113005092C00000E8C0000036C0000034C00000B8
S113006032C0000030C000002EC000002CC00000D0
S11300702AC0000028C0000026C0000024C00000E0
S113008022C0000020C000001EC0000011241FBEBA
S1130090CFEFD0E4DEBFCDBF11E0A0E0B1E0ECE8EB
S11300A0F2E000E00BBF02C007900D92AA30B10746
S11300B0D9F721E0AAE0B1E001C01D92AC32B20749
S11300C0E1F7BBD0E1C09CCF80E484B982E08AB977
S11300D008951DBC83EE8CBD08951F920F920FB638
S11300E00F9211240BB60F922F938F939F93EF933C
S11300F0FF9380910A0190910B0189309105A4F43A
S11301002EB5FC01E25FFE4F2083FC01E050FF4F5F
S113011080818EBD80910A0190910B01019690938C
S11301200B0180930A010FC0099759F48EB580938F
S11301301701809109018EBD10920B0110920A01E2
S113014002C085E48EBDFF91EF919F918F912F9115
S11301500F900BBE0F900FBE0F901F90189510922A
S1130160C50087E08093C40088ED8093C10086E0D9
S11301708093C20008951F920F920FB60F9211241C
S11301800BB60F922F933F934F935F936F937F938D
S11301908F939F93AF93BF93CF93DF93EF93FF938B
S11301A0C0910C01D0910D01209741F44AE050E038
S11301B060E270E082E291E051D003C0CA30D10520
S11301C08CF4E6ECF0E08081CE5DDE4F88838083A2
S11301D080910C0190910D01019690930D018093F3
S11301E00C010CC02A9751F4E6ECF0E08081809376
S11301F02C01808310920D0110920C01FF91EF915C
S1130200DF91CF91BF91AF919F918F917F916F912A
S11302105F914F913F912F910F900BBE0F900FBEA6
S11302200F901F9018951F920F920FB60F921124E2
S11302300F900FBE0F901F90189583B7816083BFF6
S113024043DF80E185B945DF8ADF78944AE050E0F6
S113025062E271E080E091E008D0F8CFDC0101C0F7
S11302606D9341505040E0F70895FB01DC0141508B
S1130270504048F001900D920020C9F701C01D9232
S10F028041505040E0F70895F894FFCF7F
S10D028C3132333435363738393057
S9030000FC
