S01600004B6F6D6D6F64756C5F7641302E312E7372656321
S113000045C0000060C000005EC000005CC000008D
S11300105AC0000058C0000056C0000054C0000080
S113002052C0000050C000004EC000004CC0000090
S11300304AC0000048C0000046C0000044C00000A0
S113004042C0000040C000003EC0000046C00000A6
S113005079C0000038C00000A0C0000034C0000017
S113006032C0000030C000002EC000002CC00000D0
S11300702AC0000028C0000026C0000024C00000E0
S113008022C0000020C000001EC0000011241FBEBA
S1130090CFEFD0E4DEBFCDBF11E0A0E0B1E0EAECE9
S11300A0F1E000E00BBF02C007900D92A231B1074E
S11300B0D9F721E0A2E1B1E001C01D92A731B20756
S11300C0E1F775D080C09CCF80E484B982E08AB91E
S11300D008951DBC83EE8CBD08951F920F920FB638
S11300E00F9211240BB60F928F939F93EF93FF936C
S11300F08EB590E09093130180931201FC01E050BF
S1130100FF4F80818EBDFF91EF919F918F910F9052
S11301100BBE0F900FBE0F901F9018951092C50044
S113012087E08093C40088ED8093C10086E08093CB
S1130130C2000895E0ECF0E0908195FFFDCF80933C
S1130140C60008951F920F920FB60F9211240BB69A
S11301500F922F933F934F935F936F937F938F935C
S11301609F93AF93BF93EF93FF938091C6008093C7
S11301701601E0DFFF91EF91BF91AF919F918F91B5
S11301807F916F915F914F913F912F910F900BBE93
S11301900F900FBE0F901F9018951F920F920FB6DD
S11301A00F9211240F900FBE0F901F90189510926C
S11301B0140183B7816083BF87DF80E185B989DF5C
S10D01C0ADDF7894FFCFF894FFCF71
S11301CA4142434445464748494A4B4C4D4E4F5099
S10501DA00001F
S9030000FC
