S01600004B6F6D6D6F64756C5F7641302E312E7372656321
S113000045C0000060C000005EC000005CC000008D
S11300105AC0000058C0000056C0000054C0000080
S113002052C0000050C000004EC000004CC0000090
S11300304AC0000048C0000046C0000044C00000A0
S113004042C0000040C000003EC0000043C10000A8
S1130050AFC00000E9C0000036C0000034C000009A
S113006032C0000030C000002EC000002CC00000D0
S11300702AC0000028C0000026C0000024C00000E0
S113008022C0000020C000001EC0000011241FBEBA
S1130090CFEFD0E4DEBFCDBF11E0A0E0B1E0EAE3F2
S11300A0F6E000E00BBF02C007900D92A234B10746
S11300B0D9F721E0A2E4B1E001C01D92AE34B20749
S11300C0E1F741D1B8C29CCF80E484B982E08AB917
S11300D008951DBC83EE8CBD08951092C50087E081
S11300E08093C40088ED8093C10086E08093C200B1
S11300F008951F93CF93DF93EC01162F009791F08F
S113010029813A812115310511F0E901F9CF83E004
S113011090E06AD19A838983FC011083E981FA8192
S113012012821182DF91CF911F910895FF920F9354
S11301301F93CF93DF93EC01E881F981309741F06D
S113014001811281F080CF01E7D11983088301C0B6
S1130150F12C8F2DDF91CF911F910F91FF90089576
S1130160CF93DF93EC0188819981892B31F0CE0103
S1130170DDDF88819981892BD1F7DF91CF910895B3
S1130180CF93DF93FC016081662351F0EC0121964B
S11301908091440190914501ACDF69916111F8CFE0
S11301A0E1ECF0E0808180628083DF91CF9108955B
S11301B01F920F920FB60F9211240BB60F922F932A
S11301C03F934F935F936F937F938F939F93AF93DB
S11301D0BF93EF93FF938091C600813321F486E0AF
S11301E091E0CEDF0EC0823321F480E191E0C8DFDC
S11301F008C0833321F48AE191E0C2DF02C0809316
S1130200C600FF91EF91BF91AF919F918F917F9124
S11302106F915F914F913F912F910F900BBE0F9073
S11302200FBE0F901F9018951F920F920FB60F924A
S113023011240BB60F922F933F934F935F936F93B9
S11302407F938F939F93AF93BF93EF93FF9380918B
S1130250440190914501892B31F4E1ECF0E0808177
S11302608F7D808305C084E491E060DF8093C600C5
S1130270FF91EF91BF91AF919F918F917F916F917A
S11302805F914F913F912F910F900BBE0F900FBE36
S11302900F901F901895682F809148019091490103
S11302A028CF08950F931F93CF93DF931616170645
S11302B064F4EC018C01060F171F8991992787FDBF
S11302C09095E9DFC017D107C1F7DF91CF911F9156
S11302D00F9108951F920F920FB60F9211240BB62F
S11302E00F922F933F934F935F936F937F938F93CB
S11302F09F93AF93BF93EF93FF936EB580914601A5
S113030090914701F6DE8091480190914901892B33
S113031019F480E88EBD04C088E491E007DF8EBD47
S1130320FF91EF91BF91AF919F918F917F916F91C9
S11303305F914F913F912F910F900BBE0F900FBE85
S11303400F901F901895CF93DF93CDB7DEB76D97BD
S11303500FB6F894DEBF0FBECDBF83E090E044D06B
S11303609093490180934801FC011282118210820A
S113037083E090E039D09093470180934601FC01DB
S113038012821182108283E090E02ED09093430178
S113039080934201FC0112821182108283E090E07A
S11303A023D09093450180934401FC011282118271
S11303B0108283B7816083BF87DE80E185B989DEDF
S11303C08CDE78948DE1E4E2F1E0DE011196019097
S11303D00D928A95E1F76DE170E0CE01019662DF3E
S11303E086E491E0BDDEFCCFCF93DF9382309105AC
S11303F010F482E090E0E0914C01F0914D0120E096
S113040030E0A0E0B0E0309739F1408151814817E5
S11304105907B8F04817590771F4828193811097EE
S113042029F013969C938E9312972CC090934D01B0
S113043080934C0127C02115310531F04217530731
S113044018F0A901DB0101C0EF019A01BD01DF0130
S11304500280F381E02DD7CF21153105F9F0281B57
S1130460390B2430310580F48A819B816115710533
S113047021F0FB019383828304C090934D01809308
S11304804C01FE01329644C0FE01E20FF31F81933A
S1130490919322503109398328833AC020914A012B
S11304A030914B01232B41F420910201309103013F
S11304B030934B0120934A012091000130910101B6
S11304C02115310541F42DB73EB7409104015091F7
S11304D00501241B350BE0914A01F0914B01E21711
S11304E0F307A0F42E1B3F0B2817390778F0AC0153
S11304F04E5F5F4F2417350748F04E0F5F1F509330
S11305004B0140934A018193919302C0E0E0F0E0F3
S1130510CF01DF91CF910895CF93DF93009709F432
S113052087C0FC01329713821282C0914C01D09192
S11305304D01209781F420813181280F391F80914A
S11305404A0190914B018217930779F5F0934B017F
S1130550E0934A016DC0DE0120E030E0AE17BF0732
S113056050F412964D915C9113979D0141155105DC
S113057009F1DA01F3CFB383A28340815181840F5F
S1130580951F8A179B0771F48D919C911197840F85
S1130590951F02969183808312968D919C91139757
S11305A0938382832115310529F4F0934D01E0935F
S11305B04C013EC0D9011396FC93EE9312974D91D2
S11305C05D91A40FB51FEA17FB0779F4808191812F
S11305D0840F951F0296D90111969C938E93828164
S11305E0938113969C938E931297E0E0F0E08A81B6
S11305F09B81009719F0FE01EC01F9CFCE01029620
S113060028813981820F931F20914A0130914B0137
S11306102817390769F4309729F410924D01109284
S11306204C0102C013821282D0934B01C0934A0141
S10D0630DF91CF910895F894FFCFF5
S113063A00004E0120003132333435363738393030
S113064A0908070605040302010039383736353428
S113065A333231300102030405060708090A0B0C78
S113066A0D0E0F101112131415161718191A1B1C34
S105067A1D005D
S9030000FC
