:1000000045C0000060C000005EC000005CC0000091
:100010005AC0000058C0000056C0000054C0000084
:1000200052C0000050C000004EC000004CC0000094
:100030004AC0000048C0000046C0000044C00000A4
:1000400042C0000040C000003EC0000046C00000AA
:10005000DBC000000CC1000036C0000034C000004E
:1000600032C0000030C000002EC000002CC00000D4
:100070002AC0000028C0000026C0000024C00000E4
:1000800022C0000020C000001EC0000011241FBEBE
:10009000CFEFD0E4DEBFCDBF11E0A0E0B1E0EEE2F3
:1000A000F3E000E00BBF02C007900D92A836B10745
:1000B000D9F722E0A8E6B1E001C01D92AE39B2073F
:1000C000E1F71AD132C19CCF80E484B982E08AB9C9
:1000D00008951DBC83EE8CBD08951F920F920FB63C
:1000E0000F9211240BB60F922F938F939F93EF9340
:1000F000FF93809170019091710183369105A4F472
:100100002EB5FC01EE58FE4F2083FC01EA52FE4F53
:1001100080818EBD809170019091710101969093C4
:1001200071018093700110C08336910559F48EB52A
:100130008093D501809139028EBD10927101109289
:10014000700102C085E48EBDFF91EF919F918F9168
:100150002F910F900BBE0F900FBE0F901F90189510
:100160001092C50087E08093C40088ED8093C100A1
:1001700086E08093C200089544E650E0BC0180E030
:1001800091E0C4D0E1ECF0E080818F7D8083089520
:10019000FF920F931F93CF93DF938C01F62EEA010A
:1001A000888199818336910559F481E090E090939C
:1001B0006B0180936A01198218828AE392E0DCDF86
:1001C00088819981F801E80FF91FF082888199816F
:1001D000019699838883DF91CF911F910F91FF90B2
:1001E0000895FB01208131812336310511F41182FC
:1001F000108220813181DC01A20FB31F8C912F5F0F
:100200003F4F3183208308951F920F920FB60F92B4
:1002100011240BB60F922F933F934F935F936F93DD
:100220007F938F939F93AF93BF93EF93FF9310921E
:100230006B0110926A016091C60040916601509175
:1002400067018AE392E0A4DFFF91EF91BF91AF9144
:100250009F918F917F916F915F914F913F912F91DE
:100260000F900BBE0F900FBE0F901F9018951F920E
:100270000F920FB60F9211240BB60F922F933F934C
:100280004F935F936F937F938F939F93AF93BF939E
:10029000EF93FF936091640170916501FB01808190
:1002A00091818436910561F481E090E09093690139
:1002B00080936801E1ECF0E080818F7D808309C04C
:1002C000109269011092680180E091E08ADF8093CA
:1002D000C600FF91EF91BF91AF919F918F917F9158
:1002E0006F915F914F913F912F910F900BBE0F90A7
:1002F0000FBE0F901F90189583B7816083BFE4DE17
:1003000080E185B9E6DE2CDF7894FFCFFB01DC01CC
:100310004150504048F001900D920020C9F701C0B3
:0E0320001D9241505040E0F70895F894FFCF31
:10032E00313233343536373839303132333435367D
:10033E0037383930000000000000000000000000D7
:10034E00000000000000000000000000000000009F
:10035E00000000000000000000000000000000008F
:10036E00000000000000000000000000000000007F
:10037E00000000000000000000000000000000006F
:08038E00000000006C016E018B
:00000001FF
