:1000000045C0000060C000005EC000005CC0000091
:100010005AC0000058C0000056C0000054C0000084
:1000200052C0000050C000004EC000004CC0000094
:100030004AC0000048C0000046C0000044C00000A4
:1000400042C0000040C000003EC0000038C10000B7
:1000500083C00000B2C0000036C0000034C0000001
:1000600032C0000030C000002EC000002CC00000D4
:100070002AC0000028C0000026C0000024C00000E4
:1000800022C0000020C000001EC0000011241FBEBE
:10009000CFEFD0E4DEBFCDBF11E0A0E0B1E0E2E100
:1000A000F6E000E00BBF02C007900D92AA30B10746
:1000B000D9F723E0AAE0B1E001C01D92AE36B20745
:1000C000E1F737D1A4C29CCF80E484B982E08AB939
:1000D00008951DBC83EE8CBD08951092C50087E085
:1000E0008093C40088ED8093C10086E08093C200B5
:1000F000089544E650E0BC018AED91E079D2E1EC4C
:10010000F0E08081806280830895FF920F931F93B7
:10011000CF93DF938C01F62EEA018881823621F499
:10012000188286E093E0E5DF8881F801E80FF11D91
:10013000F08288818F5F8883DF91CF911F910F912B
:10014000FF900895FB012081820F911DDC018C91AD
:1001500090819F5F908308951F920F920FB60F9228
:1001600011240BB60F922F933F934F935F936F938E
:100170007F938F939F93AF93BF93EF93FF931092CF
:100180000F016091C600409108015091090186E07D
:1001900093E0BBDFFF91EF91BF91AF919F918F9162
:1001A0007F916F915F914F913F912F910F900BBE77
:1001B0000F900FBE0F901F9018951F920F920FB6C1
:1001C0000F9211240BB60F922F933F934F935F938F
:1001D0006F937F938F939F93AF93BF93EF93FF930F
:1001E000E0910601F09107018081843651F410827C
:1001F00081E080930E01E1ECF0E080818F7D8083CF
:1002000008C010920E01BF018AED91E09BDF809340
:10021000C600FF91EF91BF91AF919F918F917F9118
:100220006F915F914F913F912F910F900BBE0F9067
:100230000FBE0F901F9018950F931F93CF93DF93CE
:10024000EC018B012A813B812115310511F0E90177
:10025000F9CF84E090E0A5D09B838A83FC011183D1
:100260000083EA81FB8113821282DF91CF911F917B
:100270000F910895EF92FF920F931F93CF93DF9307
:10028000EC01E881F981309749F0E280F380008148
:100290001181CF011ED1F982E88202C000E010E096
:1002A000C801DF91CF911F910F91FF90EF900895BA
:1002B000BC0180910C0190910D01BECF08951F9259
:1002C0000F920FB60F9211240BB60F922F933F93FC
:1002D0004F935F936F937F938F939F93AF93BF934E
:1002E000EF93FF936EB570E080910A0190910B013E
:1002F000A3DF80910C0190910D01892B19F48DE2FF
:100300008EBD04C08CE091E0B5DF8EBDFF91EF9112
:10031000BF91AF919F918F917F916F915F914F911D
:100320003F912F910F900BBE0F900FBE0F901F901B
:10033000189584E090E035D090930D0180930C01E6
:10034000FC01138212821182108284E090E029D095
:1003500090930B0180930A01FC0113821282118297
:10036000108283B7816083BFAFDE80E185B9B1DEE3
:10037000B4DE7894C0E0D0E000E010E003C0CE012D
:1003800097DF2196CA30D105D4F3FFE724E88EE148
:10039000F15020408040E1F700C00000C02FD12F75
:1003A000F1CFCF93DF938230910510F482E090E09B
:1003B000E0916C03F0916D0320E030E0A0E0B0E04C
:1003C000309739F14081518148175907B8F04817E3
:1003D000590771F482819381109729F013969C93A9
:1003E0008E9312972CC090936D0380936C0327C05B
:1003F0002115310531F04217530718F0A901DB012F
:1004000001C0EF019A01BD01DF010280F381E02DFF
:10041000D7CF21153105F9F0281B390B24303105D0
:1004200080F48A819B816115710521F0FB01938322
:10043000828304C090936D0380936C03FE01329617
:1004400044C0FE01E20FF31F8193919322503109C2
:10045000398328833AC020916A0330916B03232BA0
:1004600041F4209102013091030130936B032093FA
:100470006A0320910001309101012115310541F4F9
:100480002DB73EB74091040150910501241B350B57
:10049000E0916A03F0916B03E217F307A0F42E1BBF
:1004A0003F0B2817390778F0AC014E5F5F4F2417D8
:1004B000350748F04E0F5F1F50936B0340936A035C
:1004C0008193919302C0E0E0F0E0CF01DF91CF9102
:1004D0000895CF93DF93009709F487C0FC0132970A
:1004E00013821282C0916C03D0916D03209781F426
:1004F00020813181280F391F80916A0390916B030D
:100500008217930779F5F0936B03E0936A036DC04C
:10051000DE0120E030E0AE17BF0750F412964D9197
:100520005C9113979D014115510509F1DA01F3CF53
:10053000B383A28340815181840F951F8A179B0743
:1005400071F48D919C911197840F951F0296918360
:10055000808312968D919C911397938382832115AA
:10056000310529F4F0936D03E0936C033EC0D9018B
:100570001396FC93EE9312974D915D91A40FB51FC6
:10058000EA17FB0779F480819181840F951F029609
:10059000D90111969C938E938281938113969C939B
:1005A0008E931297E0E0F0E08A819B81009719F02A
:1005B000FE01EC01F9CFCE01029628813981820F2C
:1005C000931F20916A0330916B032817390769F450
:1005D000309729F410926D0310926C0302C01382BD
:1005E0001282D0936B03C0936A03DF91CF91089579
:1005F000FB01DC014150504048F001900D92002079
:10060000C9F701C01D9241505040E0F70895F89499
:02061000FFCF1A
:0A06120000006E032000100111012A
:00000001FF
