:1000000045C0000060C000005EC000005CC0000091
:100010005AC0000058C0000056C0000054C0000084
:1000200052C0000050C000004EC000004CC0000094
:100030004AC0000048C0000046C0000044C00000A4
:1000400042C0000040C000003EC0000018C10000D7
:1000500092C00000C3C0000036C0000034C00000E1
:1000600032C0000030C000002EC000002CC00000D4
:100070002AC0000028C0000026C0000024C00000E4
:1000800022C0000020C000001EC0000011241FBEBE
:10009000CFEFD0E4DEBFCDBF11E0A0E0B1E0E8E6F5
:1000A000F5E000E00BBF02C007900D92AC30B10745
:1000B000D9F721E0ACE0B1E001C01D92A531B20753
:1000C000E1F71DD14FC29CCF80E484B982E08AB9A8
:1000D00008951DBC83EE8CBD08951092C50087E085
:1000E0008093C40088ED8093C10086E08093C200B5
:1000F00008951F93CF93DF93EC01162F8881998188
:10010000892B49F483E090E006D199838883FC0130
:100110001282118210830990D881C02D89819A8121
:10012000009711F0EC01FACF83E090E0F4D09A83CD
:1001300089831883FC0112821182DF91CF911F9174
:100140000895FF920F931F93CF93DF93EC01E88103
:10015000F981309749F001811281F080CF0173D18C
:10016000198308838F2D01C083E0DF91CF911F9108
:100170000F91FF9008951F920F920FB60F921124C6
:100180000BB60F928F939F93EF93FF939091C600BE
:10019000913041F480911001811108C081E0809379
:1001A000100111C080911001882369F0E82FF0E060
:1001B000EB5FFE4F90838F5F863019F080931001C4
:1001C00002C010921001FF91EF919F918F910F90BB
:1001D0000BBE0F900FBE0F901F9018951F920F929D
:1001E0000FB60F9211240BB60F922F933F934F939C
:1001F0005F936F937F938F939F93AF93BF93EF938F
:10020000FF9380910C0190910D01892B31F4E1EC69
:10021000F0E080818F7D808305C08CE091E091DFEC
:100220008093C600FF91EF91BF91AF919F918F9105
:100230007F916F915F914F913F912F910F900BBEE6
:100240000F900FBE0F901F901895682F8EE091E0D1
:1002500050CF08950F931F93CF93DF931616170671
:100260004CF4EC018C01060F171F8991EEDFC017CB
:10027000D107D9F7DF91CF911F910F9108951F9268
:100280000F920FB60F9211240BB60F922F933F933C
:100290004F935F936F937F938F939F93AF93BF938E
:1002A000EF93FF938EB5813051F465E070E086E006
:1002B00091E0D0DF8EE091E044DF8EBD0DC08091F3
:1002C0000E0190910F01892B19F48FEF8EBD04C0A0
:1002D0008EE091E036DF8EBDFF91EF91BF91AF913F
:1002E0009F918F917F916F915F914F913F912F914E
:1002F0000F900BBE0F900FBE0F901F90189510928D
:10030000100183B7816083BFDFDE80E185B9E1DE64
:10031000E4DE7894FFCFCF93DF938230910510F421
:1003200082E090E0E0911301F091140120E030E0D0
:10033000A0E0B0E0309739F140815181481759076A
:10034000B8F04817590771F482819381109729F00A
:1003500013969C938E9312972CC0909314018093C4
:10036000130127C02115310531F04217530718F04A
:10037000A901DB0101C0EF019A01BD01DF0102808B
:10038000F381E02DD7CF21153105F9F0281B390B6A
:100390002430310580F48A819B816115710521F03B
:1003A000FB019383828304C0909314018093130113
:1003B000FE01329644C0FE01E20FF31F8193919338
:1003C00022503109398328833AC02091110130919C
:1003D0001201232B41F4209102013091030130934B
:1003E000120120931101209100013091010121158A
:1003F000310541F42DB73EB74091040150910501FC
:10040000241B350BE0911101F0911201E217F30763
:10041000A0F42E1B3F0B2817390778F0AC014E5F74
:100420005F4F2417350748F04E0F5F1F509312019E
:10043000409311018193919302C0E0E0F0E0CF017D
:10044000DF91CF910895CF93DF93009709F487C090
:10045000FC01329713821282C0911301D0911401D2
:10046000209781F420813181280F391F809111015B
:10047000909112018217930779F5F0931201E0939E
:1004800011016DC0DE0120E030E0AE17BF0750F46F
:1004900012964D915C9113979D014115510509F1FB
:1004A000DA01F3CFB383A28340815181840F951F7A
:1004B0008A179B0771F48D919C911197840F951F5A
:1004C00002969183808312968D919C9113979383CA
:1004D00082832115310529F4F0931401E09313016F
:1004E0003EC0D9011396FC93EE9312974D915D9106
:1004F000A40FB51FEA17FB0779F480819181840F5F
:10050000951F0296D90111969C938E9382819381B7
:1005100013969C938E931297E0E0F0E08A819B8182
:10052000009719F0FE01EC01F9CFCE010296288167
:100530003981820F931F20911101309112012817E8
:10054000390769F4309729F41092140110921301BD
:1005500002C013821282D0931201C0931101DF9165
:08056000CF910895F894FFCF3C
:0C0568000000150120000000010100004F
:00000001FF
