:1000000045C0000060C000005EC000005CC0000091
:100010005AC0000058C0000056C0000054C0000084
:1000200052C0000050C000004EC000004CC0000094
:100030004AC0000048C0000046C0000044C00000A4
:1000400042C0000040C000003EC0000016C20000D8
:100050000DC100007BC1000036C0000034C00000AC
:1000600032C0000030C000002EC000002CC00000D4
:100070002AC0000028C0000026C0000024C00000E4
:1000800022C0000020C000001EC0000011241FBEBE
:10009000CFEFD0E4DEBFCDBF11E0A0E0B1E0E2E100
:1000A000F8E000E00BBF02C007900D92A831B10745
:1000B000D9F721E0A8E1B1E001C01D92AB32B2074F
:1000C000E1F772D2A4C39CCF80E484B982E08AB9FC
:1000D00008951DBC83EE8CBD08951092C50087E085
:1000E0008093C40088E98093C10086E08093C200B9
:1000F00008951F93CF93DF93EC01162F8881998188
:10010000892B49F483E090E05BD299838883FC01DA
:100110001282118210830990D881C02D89819A8121
:10012000009711F0EC01FACF83E090E049D29A8376
:1001300089831883FC0112821182DF91CF911F9174
:100140000895FF920F931F93CF93DF93EC01E88103
:10015000F981309749F001811281F080CF01C8D236
:10016000198308838F2D01C083E0DF91CF911F9108
:100170000F91FF900895CF93DF93FC01C081D1814F
:10018000209759F01182108289819A81892B19F068
:10019000CE010196F0DFCE01ABD2DF91CF91089571
:1001A000EF92FF920F931F93CF93DF937C018B010C
:1001B00088E191E0E0DF1016110654F4E7010E0D1E
:1001C0001F1D699188E191E094DFC017D107C9F73D
:1001D000E1ECF0E0808180628083DF91CF911F911C
:1001E0000F91FF90EF900895853449F118F4813014
:1001F00031F031C0873579F08935B9F02CC081E014
:1002000080931E0110921F0110921D0110921C017B
:1002100010922001089510921D0181E080931F012A
:1002200010921E0110922001089581E080931D011B
:1002300010921F0110921E0110922001089581E07A
:100240008093200110921C0110921D0110921F0139
:1002500010921E0108951092200110921C0110921C
:100260001D0110921F0110921E0108951F920F92FE
:100270000FB60F9211240BB60F922F933F934F930B
:100280005F936F937F938F939F93AF93BF93EF93FE
:10029000FF938091C60090911E0191110EC0909124
:1002A0001F0191111FC090911D01911126C09091C5
:1002B0002001911122C098DF15C0913099F4873543
:1002C00089F090911C01E92FF0E0ED5EFE4F8083F4
:1002D00081E0890F80931C01853021F410921E016A
:1002E00010921C0180911F01813039F467E070E0A9
:1002F00086E091E055DF10921F0180911D01813051
:1003000039F463E070E080E191E04ADF10921D0172
:1003100080912001813039F463E070E08DE091E05C
:100320003FDF10922001FF91EF91BF91AF919F911C
:100330008F917F916F915F914F913F912F910F908E
:100340000BBE0F900FBE0F901F9018951F920F922B
:100350000FB60F9211240BB60F922F933F934F932A
:100360005F936F937F938F939F93AF93BF93EF931D
:10037000FF938091180190911901892B31F4E1ECE0
:10038000F0E080818F7D808305C088E191E0D9DE37
:100390008093C600FF91EF91BF91AF919F918F9194
:1003A0007F916F915F914F913F912F910F900BBE75
:1003B0000F900FBE0F901F901895682F8AE191E063
:1003C00098CE08950F931F93CF93DF9316161706B9
:1003D0004CF4EC018C01060F171F8991EEDFC0175A
:1003E000D107D9F7DF91CF911F910F9108958534EF
:1003F00069F118F4813031F035C08E3FD9F08F3F6C
:1004000069F030C081E080932301109222011092A4
:1004100024011092250110922101089581E080931A
:1004200024011092220110922301109225011092B2
:100430002101089581E080932201109224011092FD
:1004400023011092250110922101089581E08093EB
:100450002501109222011092240110922301109282
:100460002101089510922501109222011092240179
:10047000109223011092210108951F920F920FB63E
:100480000F9211240BB60F922F933F934F935F93CC
:100490006F937F938F939F93AF93BF93EF93FF934C
:1004A0008EB59091230191110EC09091240191116C
:1004B0000AC09091220191111CC0909125019111C7
:1004C0002EC095DF41C090912401913091F490911C
:1004D0002101E92FF0E0EA5FFE4F80839F5F9730B4
:1004E00019F09093210130C0109221011092240143
:1004F0002BC090912201913091F490912101E92F2C
:10050000F0E0E05FFE4F80839F5F933019F090939F
:1005100021011AC0109221011092220115C0909160
:100520002501913089F490912101E92FF0E0E35FFA
:10053000FE4F80839F5F933019F09093210104C098
:10054000109221011092250180912301813061F4E4
:1005500065E070E083E191E035DF8AE191E0F1DD73
:100560008EBD109223010DC080911A0190911B0144
:10057000892B19F48FEF8EBD04C08AE191E0E1DD93
:100580008EBDFF91EF91BF91AF919F918F917F9120
:100590006F915F914F913F912F910F900BBE0F90F4
:1005A0000FBE0F901F9018951092260183B781609F
:1005B00083BF8ADD80E185B98CDD8FDD7894FFCF44
:1005C000CF93DF938230910510F482E090E0E091C8
:1005D0002901F0912A0120E030E0A0E0B0E030975E
:1005E00039F14081518148175907B8F04817590728
:1005F00071F482819381109729F013969C938E93C6
:1006000012972CC090932A018093290127C02115AD
:10061000310531F04217530718F0A901DB0101C081
:10062000EF019A01BD01DF010280F381E02DD7CFF8
:1006300021153105F9F0281B390B2430310580F4E0
:100640008A819B816115710521F0FB01938382836F
:1006500004C090932A0180932901FE01329644C080
:10066000FE01E20FF31F81939193225031093983E8
:1006700028833AC02091270130912801232B41F48F
:10068000209102013091030130932801209327012A
:1006900020910001309101012115310541F42DB760
:1006A0003EB74091040150910501241B350BE091A8
:1006B0002701F0912801E217F307A0F42E1B3F0B4E
:1006C0002817390778F0AC014E5F5F4F24173507C4
:1006D00048F04E0F5F1F50932801409327018193EC
:1006E000919302C0E0E0F0E0CF01DF91CF91089557
:1006F000CF93DF93009709F487C0FC0132971382F0
:100700001282C0912901D0912A01209781F4208181
:100710003181280F391F809127019091280182177C
:10072000930779F5F0932801E09327016DC0DE016E
:1007300020E030E0AE17BF0750F412964D915C9167
:1007400013979D014115510509F1DA01F3CFB383E8
:10075000A28340815181840F951F8A179B0771F4F2
:100760008D919C911197840F951F029691838083A0
:1007700012968D919C911397938382832115310555
:1007800029F4F0932A01E09329013EC0D901139680
:10079000FC93EE9312974D915D91A40FB51FEA174C
:1007A000FB0779F480819181840F951F0296D9010E
:1007B00011969C938E938281938113969C938E9332
:1007C0001297E0E0F0E08A819B81009719F0FE012A
:1007D000EC01F9CFCE01029628813981820F931F57
:1007E00020912701309128012817390769F43097A3
:1007F00029F410922A011092290102C01382128258
:10080000D0932801C0932701DF91CF910895F894E8
:02081000FFCF18
:1008120000002B01200007060504030201797888F5
:080822000A0A010000010100B7
:00000001FF
