S01600004B6F6D6D6F64756C5F7641302E312E7372656321
S113000045C0000060C000005EC000005CC000008D
S11300105AC0000058C0000056C0000054C0000080
S113002052C0000050C000004EC000004CC0000090
S11300304AC0000048C0000046C0000044C00000A0
S113004042C0000040C000003EC0000017C10000D4
S113005092C00000C2C0000036C0000034C00000DE
S113006032C0000030C000002EC000002CC00000D0
S11300702AC0000028C0000026C0000024C00000E0
S113008022C0000020C000001EC0000011241FBEBA
S1130090CFEFD0E4DEBFCDBF11E0A0E0B1E0E2E6F7
S11300A0F5E000E00BBF02C007900D92A630B10747
S11300B0D9F721E0A6E0B1E001C01D92A131B20759
S11300C0E1F71CD14CC29CCF80E484B982E08AB9A8
S11300D008951DBC83EE8CBD08951092C50087E081
S11300E08093C40088ED8093C10086E08093C200B1
S11300F008951F93CF93DF93EC01162F8881998184
S1130100892B49F483E090E003D199838883FC012F
S11301101282118210830990D881C02D89819A811D
S1130120009711F0EC01FACF83E090E0F1D09A83CC
S113013089831883FC0112821182DF91CF911F9170
S11301400895FF920F931F93CF93DF93EC01E881FF
S1130150F981309749F001811281F080CF0170D18B
S1130160198308838F2D01C083E0DF91CF911F9104
S11301700F91FF9008951F920F920FB60F921124C2
S11301800BB60F928F939F93EF93FF938091C600CA
S11301908823B1F090910A01911104C081E0809309
S11301A00A0110C0E92FF0E0E65FFE4F8083923031
S11301B019F410920A0106C09F5F90930A0102C0CD
S11301C01092C600FF91EF919F918F910F900BBEFB
S11301D00F900FBE0F901F9018951F920F920FB69D
S11301E00F9211240BB60F922F933F934F935F936B
S11301F06F937F938F939F93AF93BF93EF93FF93EB
S11302008091060190910701892B31F4E1ECF0E033
S113021080818F7D808305C086E091E092DF8093AA
S1130220C600FF91EF91BF91AF919F918F917F9104
S11302306F915F914F913F912F910F900BBE0F9053
S11302400FBE0F901F901895682F88E091E051CF52
S113025008950F931F93CF93DF93161617064CF44C
S1130260EC018C01060F171F8991EEDFC017D1072F
S1130270D9F7DF91CF911F910F9108951F920F929B
S11302800FB60F9211240BB60F922F933F934F93F7
S11302905F936F937F938F939F93AF93BF93EF93EA
S11302A0FF938EB5813051F462E070E08BE091E011
S11302B0D0DF88E091E045DF8EBD0DC0809108015C
S11302C090910901892B19F48FEF8EBD04C088E049
S11302D091E037DF8EBDFF91EF91BF91AF919F9178
S11302E08F917F916F915F914F913F912F910F90DB
S11302F00BBE0F900FBE0F901F90189583B78160AF
S113030083BFE2DE80E185B9E4DEE7DE7894FFCFE7
S1130310CF93DF938230910510F482E090E0E09176
S11303200F01F091100120E030E0A0E0B0E0309740
S113033039F14081518148175907B8F048175907D6
S113034071F482819381109729F013969C938E9374
S113035012972CC09093100180930F0127C0211590
S1130360310531F04217530718F0A901DB0101C030
S1130370EF019A01BD01DF010280F381E02DD7CFA7
S113038021153105F9F0281B390B2430310580F48F
S11303908A819B816115710521F0FB01938382831E
S11303A004C09093100180930F01FE01329644C063
S11303B0FE01E20FF31F8193919322503109398397
S11303C028833AC020910D0130910E01232B41F472
S11303D0209102013091030130930E0120930D010D
S11303E020910001309101012115310541F42DB70F
S11303F03EB74091040150910501241B350BE09157
S11304000D01F0910E01E217F307A0F42E1B3F0B30
S11304102817390778F0AC014E5F5F4F2417350772
S113042048F04E0F5F1F50930E0140930D018193CE
S1130430919302C0E0E0F0E0CF01DF91CF91089505
S1130440CF93DF93009709F487C0FC01329713829E
S11304501282C0910F01D0911001209781F4208164
S11304603181280F391F80910D0190910E0182175F
S1130470930779F5F0930E01E0930D016DC0DE0151
S113048020E030E0AE17BF0750F412964D915C9116
S113049013979D014115510509F1DA01F3CFB38397
S11304A0A28340815181840F951F8A179B0771F4A1
S11304B08D919C911197840F951F0296918380834F
S11304C012968D919C911397938382832115310504
S11304D029F4F0931001E0930F013EC0D901139663
S11304E0FC93EE9312974D915D91A40FB51FEA17FB
S11304F0FB0779F480819181840F951F0296D901BD
S113050011969C938E938281938113969C938E93E0
S11305101297E0E0F0E08A819B81009719F0FE01D8
S1130520EC01F9CFCE01029628813981820F931F05
S113053020910D0130910E012817390769F4309785
S113054029F41092100110920F0102C0138212823A
S1130550D0930E01C0930D01DF91CF910895F894CB
S1050560FFCFC7
S10905620000110120005D
S9030000FC
