S0110000537479725F627573732E7372656345
S113000045C0000058C0000056C0000054C00000A5
S113001052C0000050C000004EC000004CC00000A0
S11300204AC0000048C0000046C0000044C00000B0
S113003042C0000040C000003EC000003CC00000C0
S11300403AC0000038C0000036C0000063C00000A1
S113005032C0000030C000002EC000002CC00000E0
S11300602AC0000028C0000026C0000024C00000F0
S113007022C0000020C000001EC000001CC0000000
S11300801AC0000018C0000016C0000011241FBED2
S1130090CFEFD0E4DEBFCDBF11E0A0E0B1E0EEE6EB
S11300A0F1E000E00BBF02C007900D92AA30B10747
S11300B0D9F73AD05AC0A4CF8FE481B98FEB84B971
S11300C08FEF8AB908951DBC83EF8CBD08951F93EB
S11300D0CF93DF93182FEB0144E050E060E071E030
S11300E0CE0135D0892B11F415B809C044E050E095
S11300F065E071E0CE012BD0892B09F415B81EBD43
S11301000DB407FEFDCF80E385B98EB5DF91CF91A5
S11301101F9108951F920F920FB60F9211240F9002
S11301200FBE0F901F901895789483B7816083BF9A
S1130130C3DF88E185B9C7DF8EEF8EBD60E071E073
S11301408FE0C5DF60E071E08FE0C1DFFFCFFB012E
S1130150DC014150504030F08D910190801919F428
S11101600020B9F7881B990B0895F894FFCF7F
S10D016E6B6F6D6D0073656E730016
S9030000FC
