:100000006BC0000086C0000084C0000082C00000F9
:1000100080C000007EC000007CC000007AC00000EC
:1000200078C0000076C0000074C0000072C00000FC
:1000300070C000006EC000006CC000006AC000000C
:1000400068C0000066C0000064C0000057C2000025
:1000500060C000005EC000005CC000005AC000002C
:1000600008C2000056C0000054C0000052C000008A
:1000700050C000004EC000004CC000004AC000004C
:1000800048C0000046C0000044C00000084AD73BFA
:100090003BCE016E84BCBFFDC12F3D6C74319ABD57
:1000A00056833DDA3D00C77F11BED9E4BB4C3E917B
:1000B0006BAAAABE000000803F05A84CCDB2D44E6A
:1000C000B93836A9020C50B9918688083CA6AAAA6C
:1000D0002ABE000000803F0011241FBECFEFD0E4F5
:1000E000DEBFCDBF11E0A0E0B1E0E4EEFAE000E059
:1000F0000BBF02C007900D92A230B107D9F723E0E1
:10010000A2E0B1E001C01D92A431B207E1F7DCD05A
:10011000E7C476CF80E484B911B808951DBC83EE9E
:100120008CBD0895E2E1F1E02EE531E08FEF90E043
:1001300081939193E217F307D9F78AEA90E09093BD
:100140005F0180935E0188EA90E090936101809363
:10015000600184EA90E0909363018093620180EAF9
:1001600090E090936501809364018CE990E0909316
:1001700067018093660186E990E09093690180931E
:10018000680180E990E090936B0180936A01ECE64E
:10019000F1E024E931E08CE890E0819391930297BB
:1001A000E217F307D1F7E4E9F1E084E690E0819308
:1001B000919301978C339105D1F71EC09B01241BAD
:1001C000350B219331939C01992314F42F5F3F4FFA
:1001D0002E7F2817390711F44F5F5F4F019686393C
:1001E000910561F7EEE3F2E080E193E01192119264
:1001F000E817F907D9F708958CE390E09093E501AB
:100200008093E401E6EEF1E089E690E040E050E022
:100210006CE370E0E3CF681B790B882777FD80954E
:10022000982F61D220E030E042E053E4C1D195D173
:1002300020E030E044E353E447D32BED3FE049E4D2
:1002400050E4B6D11DD2862F0895CF92DF92EF925F
:10025000FF920F931F93CF93DF93EB018A01BC01B1
:10026000882777FD8095982F3ED22BED3FE049E41B
:1002700050E42AD320E030E044E353E499D195D10F
:100280006B017C01B8016C0F7D1F772314F46F5F45
:100290007F4F75956795605B7F4F882777FD8095C9
:1002A000982F21D2A70196010FD3EAD1CB016AE0A2
:1002B00070E0EFD3862FDF91CF911F910F91FF90C8
:1002C000EF90DF90CF9008952DDF80E185B922DF98
:1002D00025DF78948FE880937A0080E090E00F2EFD
:1002E000F2E04F2EF1E05F2EF02D0F2EFAE06F2E90
:1002F000712CF02DA12CB12C0F2EF8E22F2EF02D09
:10030000CAE7D0E00CC020E2280FACE7B0E02C93A5
:10031000288120642883288126FDFDCF019688301E
:1003200091058CF3E8E0F1E000811181AAE0B1E0F1
:100330008D909C90F201E080F180A4E0B1E0CD903E
:10034000DC909801280D391DC7018C0D9D1D2817C3
:1003500039076CF4B401C8015EDF382EA401B8017E
:10036000992787FD909571DFE22DE81B0BC0B60140
:10037000C70151DF382EA601B701992787FD909557
:1003800064DFE82FAEE0B1E08D919C91B30181D3A1
:1003900081E0A0E1B1E02D913C91203831050CF4D1
:1003A0008A2D982FBBEAEB16F10424F4FBEACF1652
:1003B000D104A4F0A6E0B1E02D913C9124333105A5
:1003C0007CF4A901495251094930510558F027518F
:1003D00031092131310540F482E007C08B2D05C081
:1003E0008B2D03C081E001C083E00B3A110524F49A
:1003F000BBEA8B169104A4F0ACE0B1E02D913C91E6
:10040000243331057CF4A901495251094930510581
:1004100058F0275131092131310540F422E007C05D
:100420002B2D05C02B2D03C021E001C023E0F89443
:10043000A0E1B3E03C92A1E1B3E0EC93E2E1F3E0B0
:100440006083F8E09F9F800D1124880F880F880F2C
:10045000820FA3E1B3E08C937894BFE3E2E4FFE082
:10046000B150E040F040E1F700C000008A2D90E07C
:1004700056CF1F920F920FB60F9211240BB60F9208
:100480008F939F93AF93BF93EF93FF9380917C00E3
:10049000873241F080917C00823221F080917C0093
:1004A000853269F4E0917C0080917900F0E0EE0FF4
:1004B000FF1FEE53FF4F90E09183808312C0E091C5
:1004C0007C00A0917900F0E0EE0FFF1FEE53FF4F8C
:1004D000B0E0AA0FBB1FAE5EBE4F8D919C91918381
:1004E0008083FF91EF91BF91AF919F918F910F907A
:1004F0000BBE0F900FBE0F901F9018951F920F927A
:100500000FB60F9211240BB60F928F939F93EF9318
:10051000FF93E0910001F0910101E05FFC4F8081C9
:100520008EBD80910001909101010196843091056A
:100530002CF4909301018093000104C010920101FA
:1005400010920001FF91EF919F918F910F900BBE40
:100550000F900FBE0F901F901895DF93DD27B92FD6
:10056000BF7740E85FE31616170648075B0710F4ED
:10057000D92FA3D19F938F937F936F9308D2ECE8E9
:10058000F0E0F5D04FD12F913F914F915F91A8D1DD
:10059000DD2349F09058A2EA2AED3FE049EC5FE301
:1005A000D0785D2704D2DF913DC115D1E3954BC1D1
:1005B0000CD038C108D140F0FFD030F021F45F3FBB
:1005C00019F0CCC0511173C1CFC04ED198F399230B
:1005D000C9F35523B1F3951B550BBB27AA27621707
:1005E0007307840738F09F5F5F4F220F331F441F4C
:1005F000AA1FA9F333D00E2E3AF0E0E830D0915084
:100600005040E695001CCAF729D0FE2F27D0660F70
:10061000771F881FBB1F261737074807AB07B0E8AF
:1006200009F0BB0B802DBF01FF2793585F4F2AF0C5
:100630009E3F510568F092C03AC15F3FECF3983E8F
:10064000DCF3869577956795B795F7959F5FC9F722
:10065000880F911D9695879597F90895E1E0660FAB
:10066000771F881FBB1F621773078407BA0720F024
:10067000621B730B840BBA0BEE1F88F7E09508958D
:1006800004D06894B11113C10895F6D088F09F5733
:1006900090F0B92F9927B751A0F0D1F0660F771FCE
:1006A000881F991F1AF0BA95C9F712C0B13081F0AE
:1006B000FDD0B1E00895FAC0672F782F8827B85F82
:1006C00039F0B93FCCF3869577956795B395D9F70F
:1006D0003EF490958095709561957F4F8F4F9F4F19
:1006E0000895E89409C097FB3EF490958095709525
:1006F00061957F4F8F4F9F4F9923A9F0F92F96E96E
:10070000BB279395F695879577956795B795F111E2
:10071000F8CFFAF4BB0F11F460FF1BC06F5F7F4F7F
:100720008F4F9F4F16C0882311F096E911C0772391
:1007300021F09EE8872F762F05C0662371F096E89A
:10074000862F70E060E02AF09A95660F771F881F69
:10075000DAF7880F9695879597F9089597F99F6727
:1007600080E870E060E008959FEF80EC0895DF93EB
:10077000CF931F930F93FF92EF92DF927B018C0137
:10078000689405C0DA2EEF01ABD0FE01E894A59184
:100790002591359145915591AEF3EF0108D1FE01B8
:1007A0009701A801DA9479F7DF90EF90FF900F910D
:1007B0001F91CF91DF91089500240A941616170611
:1007C00018060906089500240A9412161306140642
:1007D00005060895C9CF50D0E8F3E894E0E0BB27C0
:1007E0009F57F0F02AED3FE049EC06C0EE0FBB0F3B
:1007F000661F771F881F28F0B23A620773078407C5
:1008000028F0B25A620B730B840BE3959A9572F73A
:10081000803830F49A95BB0F661F771F881FD2F778
:1008200090481AC1092E0394000C11F4882352F049
:10083000BB0F40F4BF2B11F460FF04C06F5F7F4F0C
:100840008F4F9F4F0895EF93E0FF06C0A2EA2AED75
:100850003FE049EC5FEBABD0E5DF0F90039401FC88
:100860009058E9EBF0E004C157FD9058440F551F34
:1008700059F05F3F71F04795880F97FB991F61F022
:100880009F3F79F087950895121613061406551F99
:10089000F2CF4695F1DF08C0161617061806991F05
:1008A000F1CF86957105610508940895E894BB27FA
:1008B00066277727CB0197F908959B01AC0160E08B
:1008C00070E080E89FE374CE0BD0ACCF75DF28F0EA
:1008D0007ADF18F0952309F041CF46CF1124E7CFF6
:1008E000C3DFA0F3959FD1F3950F50E0551F629F92
:1008F000F001729FBB27F00DB11D639FAA27F00D79
:10090000B11DAA1F649F6627B00DA11D661F829F9F
:100910002227B00DA11D621F739FB00DA11D621F84
:10092000839FA00D611D221F749F3327A00D611DA1
:10093000231F849F600D211D822F762F6A2F112483
:100940009F5750408AF0E1F088234AF0EE0FFF1FD6
:10095000BB1F661F771F881F91505040A9F79E3F0D
:10096000510570F0FBCEA3CF5F3FECF3983EDCF374
:10097000869577956795B795F795E7959F5FC1F74A
:10098000FE2B880F911D9695879597F908959B01E9
:10099000AC019ACF11DF30F016DF20F031F49F3F29
:1009A00011F41EF4E1CE0EF4E095E7FBD7CEE92F6B
:1009B0005BDF80F3BA17620773078407950718F0A7
:1009C00071F49EF573CF0EF4E0950B2EBA2FA02D87
:1009D0000B01B90190010C01CA01A0011124FF27EC
:1009E000591B99F0593F50F4503E68F11A16F040E7
:1009F000A22F232F342F4427585FF3CF46953795E6
:100A00002795A795F0405395C9F77EF41F16BA0BAA
:100A1000620B730B840BBAF09150A1F0FF0FBB1F58
:100A2000661F771F881FC2F70EC0BA0F621F731FA1
:100A3000841F48F4879577956795B795F7959E3FFE
:100A400008F0B3CF9395880F08F09927EE0F97958C
:100A5000879508959F3F31F0915020F487957795C1
:100A60006795B795880F911D9695879597F9089585
:100A70009F938F937F936F93FF93EF939B01AC01B1
:100A800023DFEF91FF9173DE2F913F914F915F91A3
:100A90001BCF97FB072E16F4009406D077FD08D0E5
:100AA0000BD007FC05D03EF4909581959F4F08959B
:100AB000709561957F4F0895AA1BBB1B51E107C03C
:100AC000AA1FBB1FA617B70710F0A61BB70B881FDE
:100AD000991F5A95A9F780959095BC01CD0108956D
:040AE000F894FFCFB8
:020AE40003000D
:00000001FF
